:020000040800F2
:10000000A804002049010008C505000819030008DC
:10001000C1050008A1010008ED0B00080000000068
:10002000000000000000000000000000850700083C
:10003000A5010008000000004D0600087108000836
:100040006301000863010008630100086301000800
:1000500063010008630100086301000863010008F0
:1000600063010008630100086301000863010008E0
:1000700063010008630100086301000863010008D0
:1000800063010008630100086301000863010008C0
:1000900063010008630100086301000863010008B0
:1000A00063010008630100086301000863010008A0
:1000B0006301000863010008630100086301000890
:1000C0006301000863010008630100086301000880
:1000D0006301000863010008630100086301000870
:1000E0006301000863010008630100086301000860
:1000F0006301000863010008630100086301000850
:10010000630100086301000863010008630100083F
:10011000630100086301000863010008630100082F
:10012000630100086301000863010008630100081F
:10013000DFF810D000F01AF800480047650C0008FE
:10014000AFF30080A8040020064880470648004717
:10015000FEE7FEE7FEE7FEE7FEE7FEE7FEE7FEE777
:10016000FEE7FEE7FD08000831010008064C074DD8
:1001700006E0E06840F0010394E807009847103477
:10018000AC42F6D3FFF7D8FF300D0008500D000841
:1001900010B5024800F032FC10BD000095090008BF
:1001A00000BFFEE7704710B500F074FB00F0D2F915
:1001B00000F02EFD00F090FD10BD2DE9F04102464B
:1001C00000250026002000230024002791F803C00A
:1001D0000CF00F0591F803C00CF0100CBCF1000FEF
:1001E00003D091F802C04CEA050591F800C0BCF1BB
:1001F000000F31D0146800202BE04FF0010C0CFAF6
:1002000000F3B1F800C00CEA03069E4220D183003F
:100210004FF00F0C0CFA03F7BC4305FA03FC4CEA51
:10022000040491F803C0BCF1280F06D14FF0010C73
:100230000CFA00FCC2F814C00AE091F803C0BCF14B
:10024000480F05D14FF0010C0CFA00FCC2F810C0A9
:10025000401C0828D1D31460B1F800C0BCF1FF0FD6
:1002600034DD546800202EE000F1080C4FF0010846
:1002700008FA0CF3B1F800C00CEA03069E4221D143
:1002800083004FF00F0C0CFA03F7BC4305FA03FC94
:100290004CEA040491F803C0BCF1280F05D100F129
:1002A000080C08FA0CF8C2F8148091F803C0BCF1ED
:1002B000480F07D100F1080C4FF0010808FA0CF8BC
:1002C000C2F81080401C0828CED35460BDE8F081ED
:1002D0000246002093680B400BB1012000E0002093
:1002E0007047416170470161704770B50025002477
:1002F00007E0204600F032F8054605B103E0601C37
:10030000C4B2022CF5D300BF284670BD014908686D
:10031000496870474000002000BFFEE710B5FFF7B6
:10032000E4FF0446012C06D0022C0CD0812C06D010
:10033000822C10D10BE0002000F07CFB0CE00020B0
:1003400000F062FB08E0012000F074FB04E00120F3
:1003500000F05AFB00E000BF00BF10BD7CB50446B2
:1003600004EB4402794B03EB8202918804EB4402D4
:1003700003EB82029068FFF7ABFF054604EB4400F5
:10038000734911F8300030B101283DD002285FD008
:1003900003287DD1C3E07DB9012004EB44016C4A00
:1003A00002F83100FFF7B2FF04EB4402684B03EBA5
:1003B000C202C2E90201C5E004EB4400644901EB5A
:1003C000C0004078F8B1FFF7A1FFCDE9000104EBD0
:1003D00044005F4901EBC000D0E90416DDE90030BC
:1003E0005A1A60EB06004FF4967300219A1A814165
:1003F00009D2002004EB4401554A02EBC1014870C8
:10040000601CC0B27CBD9DE0DDB9FFF77FFFCDE988
:10041000000104EB44004E4901EBC000D0E9023179
:10042000DDE90020D21A60EB01000A2300219A1AAC
:1004300081410CD2022004EB4401454A02F831000C
:1004400005E0002004EB4401414A02F8310079E064
:10045000EDB3002004EB44013D4A02F8310004EB07
:100460004400114601EBC0004078401C04EB4401FD
:1004700002EBC101487004EB4400114601EBC000DF
:10048000407801280BD1FFF741FF04EB440200E064
:1004900051E02F4B03EBC202C2E9040152E0FFF727
:1004A00035FFCDE9000104EB4400294901EBC00010
:1004B000D0E90423DDE900108A1A60EB03004FF451
:1004C000967300219A1A814128D3002000E009E0A8
:1004D00004EB44011E4A02EBC101487004F15100D3
:1004E000C0B28FE7FFF712FFCDE9000104EB440033
:1004F000174901EBC000D0E90231DDE90020D31A31
:1005000060EB01004FF47A720021D21A814105D2CA
:10051000032004EB44010E4A02F8310012E04DB111
:10052000002004EB44010A4A02F8310004F1810082
:10053000C0B267E706E0002004EB4401044A02F879
:10054000310000BF00BF00205CE700000C0000206D
:100550007800002038B510208DF8030003208DF8B6
:100560000200002427E004EB4401144A52F8210061
:10057000012100F07DF804EB4400104901EB8000FC
:100580000089ADF8000004EB44010C4A02EB810144
:1005900048686946FFF711FE04EB4402074B03EB82
:1005A0008202118904EB440203EB82025068FFF7D8
:1005B0009AFE601CC4B2022CD5D338BD24000020A2
:1005C00000BFFEE77047000070B5002100230F2236
:1005D000C47804B3154C246804F4E064C4F5E06402
:1005E000210AC1F10403CA40447804FA03F1847873
:1005F0001440214309010E4C0678A155047804F0FB
:100600001F050124AC4005786D11AD0005F1E02512
:10061000C5F8004109E0047804F01F050124AC404E
:10062000044D0678761145F8264070BD0CED00E0CB
:1006300000E400E080E100E002490143024A116069
:10064000704700000000FA050CED00E07047000064
:1006500029B1064A12690243044B1A6104E0034AB5
:1006600012698243014B1A6170470000001002407A
:1006700029B1064A92690243044B9A6104E0034A95
:1006800092698243014B9A6170470000001002405A
:1006900029B1064AD2680243044BDA6004E0034AF7
:1006A000D2688243014BDA607047000000100240BC
:1006B00030B500210022002400232D4D6D6805F087
:1006C0000C0121B1042905D0082923D105E0294DC9
:1006D000056022E0274D05601FE0254D6D6805F49B
:1006E0007012234D6D6805F48034022505EB9242AB
:1006F0001CB9214D554305600BE01D4D6D6805F497
:1007000000351DB11C4D5543056002E0194D5543A0
:10071000056002E0174D056000BF00BF144D6D6815
:1007200005F0F0010909154D6B5C0568DD40456079
:100730000F4D6D6805F4E061090A104D6B5C45686A
:10074000DD4085600A4D6D6805F46051C90A0B4DA6
:100750006B5C4568DD40C560054D6D6805F4404142
:10076000890B074D6B5CC568B5FBF3F5056130BDC2
:100770000010024000127A0000093D0060000020D5
:1007800070000020704710B500F002F810BD0000A6
:100790000CB50020019000903348006840F4803090
:1007A0003149086000BF3048006800F40030009014
:1007B0000198401C0190009818B90198B0F5A06FFD
:1007C000F1D12948006800F4003010B101200090F8
:1007D00001E0002000900098012843D123480068E0
:1007E00040F01000214908600846006820F003002E
:1007F00008600846006840F0020008601A48406837
:10080000194948600846406848600846406840F416
:10081000806048600846406820F47C1048600846C4
:10082000406840F4E81048600846006840F0807076
:10083000086000BF0C48006800F000700028F9D084
:100840000948406820F003000749486008464068AE
:1008500040F00200486000BF0348406800F00C0010
:100860000828F9D10CBD0000001002400020024011
:1008700010B50648036840685A1C40F1000003495F
:100880000A60486002480068804710BD40000020B0
:100890004800002030B5164800684FF47A72B0FB6B
:1008A000F2F1B1F1807F01D301201DE021F07F4002
:1008B000401E4FF0E022506150170F22002807DA47
:1008C00013071D0E0B4B00F00F04241F1D5503E0F2
:1008D00013071C0E084B1C5400BF00204FF0E022F1
:1008E000906107201061002008B100BFFEE730BD15
:1008F0004C00002018ED00E000E400E010B51348C3
:10090000006840F00100114908600846406810493D
:1009100008400E494860084600680E4908400B49E7
:1009200008600846006820F4802008600846406897
:1009300020F4FE0048604FF41F008860FFF723FF9B
:100940004FF000600449086010BD00000010024034
:100950000000FFF8FFFFF6FE08ED00E010B50024F0
:1009600013E004EB44000A4911F8200058B10020BC
:1009700004EB4401064A02F8210004EB440102EBB7
:10098000810188688047601CC4B2002CE9D010BD8A
:100990000000002000202BE000EB4001164A02EB93
:1009A0008101498811B300EB400102EB81014988C4
:1009B000491E00EB4002104B03EB8202518000EB1A
:1009C00040011A4602EB8101498879B9012100EB07
:1009D000400203F8221000EB40011A4602EB8101AD
:1009E000898800EB400203EB82025180411CC8B2AF
:1009F0000028D1D0704700000000002001490860A5
:100A0000704700004800002010B50446022C00D3B7
:100A100010BD04EB4402064B03EB8202118904EB88
:100A2000440203EB82025068FFF75DFC00BFEFE772
:100A30002400002010B50446022C00D310BD04EBA6
:100A40004402064B03EB8202118904EB440203EBE0
:100A500082025068FFF745FC00BFEFE7240000204A
:100A600021B1828942F40052828104E082894DF6EC
:100A7000FF731A408281704710B5044620488442B3
:100A800009D101218803FFF703FE00214FF48040C4
:100A9000FFF7FEFD32E01B48844209D101214804E2
:100AA000FFF7D6FD00214FF40030FFF7D1FD25E020
:100AB0001548844209D101218804FFF7C9FD0021AE
:100AC0004FF48020FFF7C4FD18E01048844209D19C
:100AD0000121C804FFF7BCFD00214FF40020FFF7FF
:100AE000B7FD0BE00A48844208D101210805FFF751
:100AF000AFFD00214FF48010FFF7AAFD10BD0000EC
:100B0000003801400044004000480040004C0040D4
:100B1000005000402DE9F04786B005460E460024FF
:100B2000A24600BFA1460027B08900B100BF2F46F2
:100B30002C8A4CF6FF700440F08804432C82AC8968
:100B40004EF6F3100440B088318908437189084398
:100B50000443AC81AC8A4FF6FF400440B0890443A3
:100B6000AC8201A8FFF7A4FD1F48874202D1DDF83F
:100B700010A001E0DDF80CA0A88900F4004040B10D
:100B80000AEBCA0000EB0A1031684900B0FBF1F82B
:100B900007E00AEBCA0000EB0A1031688900B0FBDD
:100BA000F1F86420B8FBF0F004012009642101FB96
:100BB0001089A88900F4004040B1322000EBC90040
:100BC000B0FBF1F000F00700044308E0322000EB36
:100BD00009106421B0FBF1F000F00F0004432C81F8
:100BE00006B0BDE8F08700000038014000BFFEE716
:100BF00002E008C8121F08C1002AFAD170477047E6
:100C0000002001E001C1121F002AFBD17047000043
:100C100038B548208DF8030003208DF80200002429
:100C20001AE004EB44010E4A52F821000121FFF7BB
:100C30001FFD04EB44000A4901EB80008088ADF8F9
:100C4000000004EB4401064A02EB81018868694612
:100C5000FFF7B3FA601CC4B2022CE2D338BD000027
:100C60000C000020FFF79FFAFFF792FA01E0FFF770
:100C700075FEFCE710B586B004461648FFF7FCFE8B
:100C800002940020ADF80C00ADF80E00ADF8100095
:100C9000ADF814000820ADF8120002A90D48FFF7C6
:100CA00039FF4FF4A060FFF7C7FC25208DF8040042
:100CB00000208DF8050002208DF8060001208DF837
:100CC000070001A8FFF780FC01210248FFF7C8FEDA
:100CD00006B010BD0038014010B500F005F84FF423
:100CE0001650FFF7C7FF10BD08B501210420FFF71C
:100CF000BFFC01218803FFF7BBFC04208DF8030033
:100D00000002ADF8000003208DF802006946074894
:100D1000FFF753FA18208DF803004FF40070ADF878
:100D2000000069460148FFF748FA08BD0008014085
:100D3000500D00080000002074000000F00B0008B7
:100D4000C40D00087400002034040000000C0008EA
:100D500000000500050000001D030008040000005D
:100D6000008000000008014010000000200000008A
:100D700000100140040000000008014000010000D4
:100D800020000000001401400400000000000000EA
:100D900000000000000000000000000000A24A0463
:100DA000000000000000000001020304060708091B
:100DB0000000000001020304010203040607080901
:040DC000020406081B
:0400000508000131BD
:00000001FF
